{
  "transactions": [
    {
      "hash": "0x79213574f3ec4fdcea977f86a3d0876303524519045871bfddf3f100bb29d7dc",
      "transactionType": "CREATE",
      "contractName": "v1",
      "contractAddress": "0x17f8e3b6fa6fbf73f1193b1db9957ef250258d26",
      "function": null,
      "arguments": null,
      "transaction": {
        "from": "0x93e075ee9319d0540e4fe1d42d1839109102b316",
        "gas": "0x1d14b",
        "value": "0x0",
        "input": "0x6080604052348015600f57600080fd5b5060b180601d6000396000f3fe6080604052348015600f57600080fd5b506004361060325760003560e01c8063262a9dff146037578063d5dcf127146051575b600080fd5b603f60005481565b60405190815260200160405180910390f35b6061605c3660046063565b600055565b005b600060208284031215607457600080fd5b503591905056fea2646970667358221220074f4a0adef99adcbec554ac91400f67e82847b334ac66f2acc2cb086f320fba64736f6c634300081b0033",
        "nonce": "0x4",
        "chainId": "0xaa36a7"
      },
      "additionalContracts": [],
      "isFixedGasLimit": false
    },
    {
      "hash": "0x0592f5e0bcf2797d8b3f08479a7b10e3e5c315ed551dc6b433fb60441fba11ea",
      "transactionType": "CREATE",
      "contractName": "v2",
      "contractAddress": "0xde340eb63455c29115925cc4f0e1d078ab0d6a76",
      "function": null,
      "arguments": null,
      "transaction": {
        "from": "0x93e075ee9319d0540e4fe1d42d1839109102b316",
        "gas": "0x20186",
        "value": "0x0",
        "input": "0x6080604052348015600f57600080fd5b5060dd80601d6000396000f3fe6080604052348015600f57600080fd5b506004361060465760003560e01c80630e989a3814604b5780632bc2f58d1460655780636b79478814606d578063fca43d1014607f575b600080fd5b605360015481565b60405190815260200160405180910390f35b605360005481565b607d6078366004608f565b600055565b005b607d608a366004608f565b600155565b60006020828403121560a057600080fd5b503591905056fea26469706673582212206a533e8c6488cd9ed47822dc00f5a2dd849e4ad5daa6e4453a9dbaecb7f990ce64736f6c634300081b0033",
        "nonce": "0x5",
        "chainId": "0xaa36a7"
      },
      "additionalContracts": [],
      "isFixedGasLimit": false
    },
    {
      "hash": null,
      "transactionType": "CREATE",
      "contractName": "ProxyContract",
      "contractAddress": "0x879665df83ab4628babf7b1df863b10a44b5a381",
      "function": null,
      "arguments": null,
      "transaction": {
        "from": "0x93e075ee9319d0540e4fe1d42d1839109102b316",
        "gas": "0x3d99a",
        "value": "0x0",
        "input": "0x6080604052348015600f57600080fd5b50337fb361eaf08109ac4e837850c52399e285128fdaa6c1699e4864dd655f97ca6fd855610223806100426000396000f3fe6080604052600436106100345760003560e01c80630900f0101461007f578063c59ba2911461009f578063f851a440146100eb575b7ff6f6086befbca7cfaa9ea1c36c107dec58c78347fb43ef708dd42987068309a580543660008037600080366000845af490503d6000803e808015610078573d6000f35b3d6000fd5b005b34801561008b57600080fd5b5061007d61009a3660046101bd565b61011f565b3480156100ab57600080fd5b507ff6f6086befbca7cfaa9ea1c36c107dec58c78347fb43ef708dd42987068309a5545b6040516001600160a01b03909116815260200160405180910390f35b3480156100f757600080fd5b507fb361eaf08109ac4e837850c52399e285128fdaa6c1699e4864dd655f97ca6fd8546100cf565b7fb361eaf08109ac4e837850c52399e285128fdaa6c1699e4864dd655f97ca6fd8546001600160a01b0316336001600160a01b0316146101995760405162461bcd60e51b81526020600482015260116024820152702cb7ba9030b932903737ba1030b236b4b760791b604482015260640160405180910390fd5b7ff6f6086befbca7cfaa9ea1c36c107dec58c78347fb43ef708dd42987068309a555565b6000602082840312156101cf57600080fd5b81356001600160a01b03811681146101e657600080fd5b939250505056fea2646970667358221220d5269eb29032e8231e665e1d0c2317753d27c881138808d4ec408f94aed0664c64736f6c634300081b0033",
        "nonce": "0x6",
        "chainId": "0xaa36a7"
      },
      "additionalContracts": [],
      "isFixedGasLimit": false
    },
    {
      "hash": null,
      "transactionType": "CALL",
      "contractName": "ProxyContract",
      "contractAddress": "0x879665df83ab4628babf7b1df863b10a44b5a381",
      "function": "upgrade(address)",
      "arguments": [
        "0x17f8E3b6fA6FBf73f1193B1dB9957EF250258d26"
      ],
      "transaction": {
        "from": "0x93e075ee9319d0540e4fe1d42d1839109102b316",
        "to": "0x879665df83ab4628babf7b1df863b10a44b5a381",
        "gas": "0xf7ca",
        "value": "0x0",
        "input": "0x0900f01000000000000000000000000017f8e3b6fa6fbf73f1193b1db9957ef250258d26",
        "nonce": "0x7",
        "chainId": "0xaa36a7"
      },
      "additionalContracts": [],
      "isFixedGasLimit": false
    }
  ],
  "receipts": [],
  "libraries": [],
  "pending": [
    "0x79213574f3ec4fdcea977f86a3d0876303524519045871bfddf3f100bb29d7dc",
    "0x0592f5e0bcf2797d8b3f08479a7b10e3e5c315ed551dc6b433fb60441fba11ea"
  ],
  "returns": {},
  "timestamp": 1734456575,
  "chain": 11155111,
  "commit": "30a9a51"
}